:100000000C9452000C9464000C9464000C946400F2
:100010000C9464000C9464000C9464000C946400D0
:100020000C9464000C9464000C9464000C946400C0
:100030000C9464000C9464000C9464000C946400B0
:100040000C9497000C9464000C9464000C9464006D
:100050000C9464000C9464000C9464000C94640090
:100060000C9464000C94640000000000250028003B
:100070002B0000000000240027002A0004040404D0
:100080000404040402020202020203030303030342
:10009000010204081020408001020408102001021F
:1000A0000408102011241FBECFEFD8E0DEBFCDBF63
:1000B00021E0A0E0B1E001C01D92AB30B207E1F752
:1000C0000E94E1000C9458010C940000CF93DF9340
:1000D00090E0FC01E057FF4F249184589F4FFC01B2
:1000E00084918823D1F090E0880F991FFC01EE588D
:1000F000FF4FA591B491FC01E859FF4FC591D491F0
:10010000623071F49FB7F8943C91822F80958323DD
:100110008C93E8812E2B28839FBFDF91CF91089588
:100120008FB7F894EC912E2B2C938FBFF6CF1F92A4
:100130000F920FB60F9211242F933F938F939F939B
:10014000AF93BF938091070190910801A09109019D
:10015000B0910A013091060123E0230F2D3758F5A5
:100160000196A11DB11D2093060180930701909374
:100170000801A0930901B0930A01809102019091B6
:100180000301A0910401B09105010196A11DB11DCB
:100190008093020190930301A0930401B0930501A1
:1001A000BF91AF919F918F913F912F910F900FBE73
:1001B0000F901F90189526E8230F0296A11DB11DE0
:1001C000D2CF789484B5826084BD84B5816084BDCB
:1001D00085B5826085BD85B5816085BD80916E00E5
:1001E000816080936E001092810080918100826016
:1001F0008093810080918100816080938100809153
:1002000080008160809380008091B1008460809341
:10021000B1008091B00081608093B00080917A003D
:10022000846080937A0080917A00826080937A0063
:1002300080917A00816080937A0080917A00806852
:1002400080937A001092C10061E086E00E9466000F
:1002500061E087E00E94660062E082E00E94660042
:10026000FF24F39403EE13E0C0E0D0E091E04A995C
:1002700008C090E0909301012097C1F30E94000014
:10028000F5CF809101018111F5CF80910001882384
:1002900049F08BB1806C8BB9F8013197F1F78BB1D4
:1002A0008F738BB9809100018F2580930001E2CF7D
:0402B000F894FFCFF0
:00000001FF
